{
  "contractName": "SupplyChain",
  "abi": [
    {
      "constant": true,
      "inputs": [],
      "name": "skuCount",
      "outputs": [
        {
          "name": "",
          "type": "uint256"
        }
      ],
      "payable": false,
      "stateMutability": "view",
      "type": "function",
      "signature": "0x22702473"
    },
    {
      "constant": true,
      "inputs": [],
      "name": "owner",
      "outputs": [
        {
          "name": "",
          "type": "address"
        }
      ],
      "payable": false,
      "stateMutability": "view",
      "type": "function",
      "signature": "0x8da5cb5b"
    },
    {
      "constant": true,
      "inputs": [
        {
          "name": "",
          "type": "uint256"
        }
      ],
      "name": "items",
      "outputs": [
        {
          "name": "name",
          "type": "string"
        },
        {
          "name": "sku",
          "type": "uint256"
        },
        {
          "name": "price",
          "type": "uint256"
        },
        {
          "name": "state",
          "type": "uint8"
        },
        {
          "name": "seller",
          "type": "address"
        },
        {
          "name": "buyer",
          "type": "address"
        }
      ],
      "payable": false,
      "stateMutability": "view",
      "type": "function",
      "signature": "0xbfb231d2"
    },
    {
      "inputs": [],
      "payable": false,
      "stateMutability": "nonpayable",
      "type": "constructor",
      "signature": "constructor"
    },
    {
      "anonymous": false,
      "inputs": [
        {
          "indexed": true,
          "name": "sku",
          "type": "uint256"
        }
      ],
      "name": "LogForSale",
      "type": "event",
      "signature": "0x4627c48065af2a9648cbecdd4b9da340c00e501243cd49a8a71c30c987e8b761"
    },
    {
      "anonymous": false,
      "inputs": [
        {
          "indexed": true,
          "name": "sku",
          "type": "uint256"
        }
      ],
      "name": "LogSold",
      "type": "event",
      "signature": "0xe64ca8c671e48636f85f3008c1dd538e36bfa74fb6f2790b56b72fcc33b879ef"
    },
    {
      "anonymous": false,
      "inputs": [
        {
          "indexed": true,
          "name": "sku",
          "type": "uint256"
        }
      ],
      "name": "LogShipped",
      "type": "event",
      "signature": "0xeaf695929fec8154f0eafe7248c0e16855eb9ad09e623be92f669e544d53e856"
    },
    {
      "anonymous": false,
      "inputs": [
        {
          "indexed": true,
          "name": "sku",
          "type": "uint256"
        }
      ],
      "name": "LogReceived",
      "type": "event",
      "signature": "0x5a98827d06afe0e04647b3aed26f1ffb77171ad9ac41603c4ef623a6638798c1"
    },
    {
      "constant": false,
      "inputs": [
        {
          "name": "_name",
          "type": "string"
        },
        {
          "name": "_price",
          "type": "uint256"
        }
      ],
      "name": "addItem",
      "outputs": [
        {
          "name": "",
          "type": "bool"
        }
      ],
      "payable": false,
      "stateMutability": "nonpayable",
      "type": "function",
      "signature": "0x62d6bbdf"
    },
    {
      "constant": false,
      "inputs": [
        {
          "name": "sku",
          "type": "uint256"
        }
      ],
      "name": "buyItem",
      "outputs": [],
      "payable": true,
      "stateMutability": "payable",
      "type": "function",
      "signature": "0xe7fb74c7"
    },
    {
      "constant": false,
      "inputs": [
        {
          "name": "sku",
          "type": "uint256"
        }
      ],
      "name": "shipItem",
      "outputs": [],
      "payable": false,
      "stateMutability": "nonpayable",
      "type": "function",
      "signature": "0xf61c899a"
    },
    {
      "constant": false,
      "inputs": [
        {
          "name": "sku",
          "type": "uint256"
        }
      ],
      "name": "receiveItem",
      "outputs": [],
      "payable": false,
      "stateMutability": "nonpayable",
      "type": "function",
      "signature": "0xa26be999"
    },
    {
      "constant": true,
      "inputs": [
        {
          "name": "_sku",
          "type": "uint256"
        }
      ],
      "name": "fetchItem",
      "outputs": [
        {
          "name": "name",
          "type": "string"
        },
        {
          "name": "sku",
          "type": "uint256"
        },
        {
          "name": "price",
          "type": "uint256"
        },
        {
          "name": "state",
          "type": "uint256"
        },
        {
          "name": "seller",
          "type": "address"
        },
        {
          "name": "buyer",
          "type": "address"
        }
      ],
      "payable": false,
      "stateMutability": "view",
      "type": "function",
      "signature": "0xad4b9cfb"
    }
  ],
  "bytecode": "0x608060405234801561001057600080fd5b50336000806101000a81548173ffffffffffffffffffffffffffffffffffffffff021916908373ffffffffffffffffffffffffffffffffffffffff1602179055506000600181905550611140806100686000396000f3fe60806040526004361061008e576000357c0100000000000000000000000000000000000000000000000000000000900463ffffffff168063227024731461009357806362d6bbdf146100be5780638da5cb5b146101a8578063a26be999146101ff578063ad4b9cfb1461023a578063bfb231d214610369578063e7fb74c7146104a6578063f61c899a146104d4575b600080fd5b34801561009f57600080fd5b506100a861050f565b6040518082815260200191505060405180910390f35b3480156100ca57600080fd5b5061018e600480360360408110156100e157600080fd5b81019080803590602001906401000000008111156100fe57600080fd5b82018360208201111561011057600080fd5b8035906020019184600183028401116401000000008311171561013257600080fd5b91908080601f016020809104026020016040519081016040528093929190818152602001838380828437600081840152601f19601f82011690508083019250505050505050919291929080359060200190929190505050610515565b604051808215151515815260200191505060405180910390f35b3480156101b457600080fd5b506101bd6106c4565b604051808273ffffffffffffffffffffffffffffffffffffffff1673ffffffffffffffffffffffffffffffffffffffff16815260200191505060405180910390f35b34801561020b57600080fd5b506102386004803603602081101561022257600080fd5b81019080803590602001909291905050506106e9565b005b34801561024657600080fd5b506102736004803603602081101561025d57600080fd5b810190808035906020019092919050505061089c565b60405180806020018781526020018681526020018581526020018473ffffffffffffffffffffffffffffffffffffffff1673ffffffffffffffffffffffffffffffffffffffff1681526020018373ffffffffffffffffffffffffffffffffffffffff1673ffffffffffffffffffffffffffffffffffffffff168152602001828103825288818151815260200191508051906020019080838360005b8381101561032957808201518184015260208101905061030e565b50505050905090810190601f1680156103565780820380516001836020036101000a031916815260200191505b5097505050505050505060405180910390f35b34801561037557600080fd5b506103a26004803603602081101561038c57600080fd5b8101908080359060200190929190505050610a47565b60405180806020018781526020018681526020018560038111156103c257fe5b60ff1681526020018473ffffffffffffffffffffffffffffffffffffffff1673ffffffffffffffffffffffffffffffffffffffff1681526020018373ffffffffffffffffffffffffffffffffffffffff1673ffffffffffffffffffffffffffffffffffffffff168152602001828103825288818151815260200191508051906020019080838360005b8381101561046657808201518184015260208101905061044b565b50505050905090810190601f1680156104935780820380516001836020036101000a031916815260200191505b5097505050505050505060405180910390f35b6104d2600480360360208110156104bc57600080fd5b8101908080359060200190929190505050610b68565b005b3480156104e057600080fd5b5061050d600480360360208110156104f757600080fd5b8101908080359060200190929190505050610ee3565b005b60015481565b60006001547f4627c48065af2a9648cbecdd4b9da340c00e501243cd49a8a71c30c987e8b76160405160405180910390a260c06040519081016040528084815260200160015481526020018381526020016000600381111561057357fe5b81526020013373ffffffffffffffffffffffffffffffffffffffff168152602001600073ffffffffffffffffffffffffffffffffffffffff1681525060026000600154815260200190815260200160002060008201518160000190805190602001906105e092919061106f565b50602082015181600101556040820151816002015560608201518160030160006101000a81548160ff0219169083600381111561061957fe5b021790555060808201518160030160016101000a81548173ffffffffffffffffffffffffffffffffffffffff021916908373ffffffffffffffffffffffffffffffffffffffff16021790555060a08201518160040160006101000a81548173ffffffffffffffffffffffffffffffffffffffff021916908373ffffffffffffffffffffffffffffffffffffffff16021790555090505060018054016001819055506001905092915050565b6000809054906101000a900473ffffffffffffffffffffffffffffffffffffffff1681565b806002600082815260200190815260200160002060030160009054906101000a900460ff16600381111561071957fe5b6002600381111561072657fe5b1415156107c1576040517f08c379a00000000000000000000000000000000000000000000000000000000081526004018080602001828103825260218152602001807f54686973206974656d73207374617465206d757374206265205368697070656481526020017f210000000000000000000000000000000000000000000000000000000000000081525060400191505060405180910390fd5b6002600083815260200190815260200160002060040160009054906101000a900473ffffffffffffffffffffffffffffffffffffffff168073ffffffffffffffffffffffffffffffffffffffff163373ffffffffffffffffffffffffffffffffffffffff1614151561083257600080fd5b60036002600085815260200190815260200160002060030160006101000a81548160ff0219169083600381111561086557fe5b0217905550827f5a98827d06afe0e04647b3aed26f1ffb77171ad9ac41603c4ef623a6638798c160405160405180910390a2505050565b60606000806000806000600260008881526020019081526020016000206000018054600181600116156101000203166002900480601f0160208091040260200160405190810160405280929190818152602001828054600181600116156101000203166002900480156109505780601f1061092557610100808354040283529160200191610950565b820191906000526020600020905b81548152906001019060200180831161093357829003601f168201915b5050505050955060026000888152602001908152602001600020600101549450600260008881526020019081526020016000206002015493506002600088815260200190815260200160002060030160009054906101000a900460ff1660038111156109b857fe5b92506002600088815260200190815260200160002060030160019054906101000a900473ffffffffffffffffffffffffffffffffffffffff1691506002600088815260200190815260200160002060040160009054906101000a900473ffffffffffffffffffffffffffffffffffffffff16905085858585858595509550955095509550955091939550919395565b6002602052806000526040600020600091509050806000018054600181600116156101000203166002900480601f016020809104026020016040519081016040528092919081815260200182805460018160011615610100020316600290048015610af35780601f10610ac857610100808354040283529160200191610af3565b820191906000526020600020905b815481529060010190602001808311610ad657829003601f168201915b5050505050908060010154908060020154908060030160009054906101000a900460ff16908060030160019054906101000a900473ffffffffffffffffffffffffffffffffffffffff16908060040160009054906101000a900473ffffffffffffffffffffffffffffffffffffffff16905086565b806002600082815260200190815260200160002060030160009054906101000a900460ff166003811115610b9857fe5b60006003811115610ba557fe5b141515610c40576040517f08c379a00000000000000000000000000000000000000000000000000000000081526004018080602001828103825260218152602001807f54686973206974656d73207374617465206d75737420626520466f7253616c6581526020017f210000000000000000000000000000000000000000000000000000000000000081525060400191505060405180910390fd5b81803410151515610c5057600080fd5b82600060026000838152602001908152602001600020600201549050803410151515610d0a576040517f08c379a00000000000000000000000000000000000000000000000000000000081526004018080602001828103825260318152602001807f546865206d73672e76616c7565206973206e6f742073756666696369656e742081526020017f746f206275792074686973206974656d2100000000000000000000000000000081525060400191505060405180910390fd5b336002600087815260200190815260200160002060040160006101000a81548173ffffffffffffffffffffffffffffffffffffffff021916908373ffffffffffffffffffffffffffffffffffffffff1602179055506002600086815260200190815260200160002060030160019054906101000a900473ffffffffffffffffffffffffffffffffffffffff1673ffffffffffffffffffffffffffffffffffffffff166108fc60026000888152602001908152602001600020600201549081150290604051600060405180830381858888f19350505050158015610df1573d6000803e3d6000fd5b5060016002600087815260200190815260200160002060030160006101000a81548160ff02191690836003811115610e2557fe5b0217905550847fe64ca8c671e48636f85f3008c1dd538e36bfa74fb6f2790b56b72fcc33b879ef60405160405180910390a2600081340390506002600084815260200190815260200160002060040160009054906101000a900473ffffffffffffffffffffffffffffffffffffffff1673ffffffffffffffffffffffffffffffffffffffff166108fc829081150290604051600060405180830381858888f19350505050158015610eda573d6000803e3d6000fd5b50505050505050565b806002600082815260200190815260200160002060030160009054906101000a900460ff166003811115610f1357fe5b60016003811115610f2057fe5b141515610f95576040517f08c379a000000000000000000000000000000000000000000000000000000000815260040180806020018281038252601e8152602001807f54686973206974656d73207374617465206d75737420626520536f6c6421000081525060200191505060405180910390fd5b6002600083815260200190815260200160002060030160019054906101000a900473ffffffffffffffffffffffffffffffffffffffff168073ffffffffffffffffffffffffffffffffffffffff163373ffffffffffffffffffffffffffffffffffffffff1614151561100657600080fd5b600280600085815260200190815260200160002060030160006101000a81548160ff0219169083600381111561103857fe5b0217905550827feaf695929fec8154f0eafe7248c0e16855eb9ad09e623be92f669e544d53e85660405160405180910390a2505050565b828054600181600116156101000203166002900490600052602060002090601f016020900481019282601f106110b057805160ff19168380011785556110de565b828001600101855582156110de579182015b828111156110dd5782518255916020019190600101906110c2565b5b5090506110eb91906110ef565b5090565b61111191905b8082111561110d5760008160009055506001016110f5565b5090565b9056fea165627a7a723058203f029efd7bf84f737298e8ac93e56a9eeb85fb5dca9a6c1ee41c8a294f51a2050029",
  "source": "/*\n    This exercise has been updated to use Solidity version 0.5\n    Breaking changes from 0.4 to 0.5 can be found here: \n    https://solidity.readthedocs.io/en/v0.5.0/050-breaking-changes.html\n*/\n\npragma solidity ^0.5.0;\n\ncontract SupplyChain {\n\n  /* set owner */\n  address public owner;\n\n  /* Add a variable called skuCount to track the most recent sku # */\n  uint256 public skuCount;\n  /* Add a line that creates a public mapping that maps the SKU (a number) to an Item.\n     Call this mappings items\n  */\n  mapping (uint256 => Item) public items;\n  /* Add a line that creates an enum called State. This should have 4 states\n    ForSale\n    Sold\n    Shipped\n    Received\n    (declaring them in this order is important for testing)\n  */\n   enum State { ForSale, Sold, Shipped, Received }\n  /* Create a struct named Item.\n    Here, add a name, sku, price, state, seller, and buyer\n    We've left you to figure out what the appropriate types are,\n    if you need help you can ask around :)\n  */\n  struct Item {\n      string name;\n      uint256 sku;\n      uint256 price;\n      State state;\n      address payable seller;\n      address payable buyer;\n  } \n  /* Create 4 events with the same name as each possible State (see above)\n    Each event should accept one argument, the sku*/\n    event LogForSale(uint256 indexed sku);\n    event LogSold(uint256 indexed sku);\n    event LogShipped(uint256 indexed sku);\n    event LogReceived(uint256 indexed sku);\n\n/* Create a modifer that checks if the msg.sender is the owner of the contract */\n  modifier onlyOwner() {\n        require(msg.sender == owner, \"The msg.sender must be contract's owner!\");\n        _;\n    }\n\n  modifier verifyCaller (address _address) { require (msg.sender == _address); _;}\n\n  modifier paidEnough(uint _price) { require(msg.value >= _price); _;}\n  modifier checkValue(uint _sku) {\n     uint _price = items[_sku].price;\n    //refund them after pay for item (why it is before, _ checks for logic before func)\n    require(msg.value >= _price, \"The msg.value is not sufficient to buy this item!\");\n    _;\n    uint amountToRefund = msg.value - _price;\n    items[_sku].buyer.transfer(amountToRefund);\n  }\n\n  /* For each of the following modifiers, use what you learned about modifiers\n   to give them functionality. For example, the forSale modifier should require\n   that the item with the given sku has the state ForSale. */\n  modifier forSale(uint256 _sku) {\n      require(State.ForSale == items[_sku].state, \"This items state must be ForSale!\");\n      _;\n  }\n  modifier sold(uint256 _sku) {\n      require(State.Sold == items[_sku].state, \"This items state must be Sold!\");\n      _;\n  }\n  modifier shipped(uint256 _sku) {\n      require(State.Shipped == items[_sku].state, \"This items state must be Shipped!\");\n      _;\n  }\n  modifier received(uint256 _sku) {\n      require(State.Received == items[_sku].state, \"This items state must be Received!\");\n      _;\n  }\n\n\n  constructor() public {\n    /* Here, set the owner as the person who instantiated the contract\n       and set your skuCount to 0. */\n       owner = msg.sender;\n       skuCount = 0;\n  }\n\n  function addItem(string memory _name, uint _price) public returns(bool){\n    emit LogForSale(skuCount);\n    items[skuCount] = Item({name: _name, sku: skuCount, price: _price, state: State.ForSale, seller: msg.sender, buyer: address(0)});\n    skuCount = skuCount + 1;\n    return true;\n  }\n\n  /* Add a keyword so the function can be paid. This function should transfer money\n    to the seller, set the buyer as the person who called this transaction, and set the state\n    to Sold. Be careful, this function should use 3 modifiers to check if the item is for sale,\n    if the buyer paid enough, and check the value after the function is called to make sure the buyer is\n    refunded any excess ether sent. Remember to call the event associated with this function!*/\n\n  function buyItem(uint sku)\n    public payable forSale(sku) paidEnough(sku) checkValue(sku)\n  {\n      items[sku].buyer = msg.sender;\n      items[sku].seller.transfer(items[sku].price);\n      items[sku].state = State.Sold;\n      emit LogSold(sku);\n  }\n\n  /* Add 2 modifiers to check if the item is sold already, and that the person calling this function\n  is the seller. Change the state of the item to shipped. Remember to call the event associated with this function!*/\n  function shipItem(uint sku)\n    public sold(sku) verifyCaller(items[sku].seller)\n  {\n      items[sku].state = State.Shipped;\n      emit LogShipped(sku);\n  }\n\n  /* Add 2 modifiers to check if the item is shipped already, and that the person calling this function\n  is the buyer. Change the state of the item to received. Remember to call the event associated with this function!*/\n  function receiveItem(uint sku)\n    public shipped(sku) verifyCaller(items[sku].buyer)\n  {\n      items[sku].state = State.Received;\n      emit LogReceived(sku);\n  }\n\n  /* We have these functions completed so we can run tests, just ignore it :) */\n  function fetchItem(uint _sku) public view returns (string memory name, uint sku, uint price, uint state, address seller, address buyer) {\n    name = items[_sku].name;\n    sku = items[_sku].sku;\n    price = items[_sku].price;\n    state = uint(items[_sku].state);\n    seller = items[_sku].seller;\n    buyer = items[_sku].buyer;\n    return (name, sku, price, state, seller, buyer);\n  }\n\n}",
  "sourcePath": "/Users/bvenkatachalam/Documents/BlockChain/supply-chain-codebama1/contracts/SupplyChain.sol",
  "compiler": {
    "name": "solc",
    "version": "0.5.0+commit.1d4f565a.Emscripten.clang"
  },
  "schemaVersion": "3.0.1",
  "updatedAt": "2019-01-09T07:44:16.465Z",
  "devdoc": {
    "methods": {}
  },
  "userdoc": {
    "methods": {}
  }
}